:101B960042034E000041034B0042034C0001420346
:081BA600470000420349000062
:101CF70053A23F43A24043B20853B1F775985043EC
:101D07008E40538EFE53890F758BE0758DFEC2ABE7
:051D1700D2ACD28E22C7
:101DDD0043CA1053C9EF438E805389F0758ACD7570
:0B1DED008CD4C28DD2A9D2AFD28C22C0
:101DA50053CADF43C92043BA8090FEA8743FF0535D
:0C1DB500BA7F43DE0F43BC0543BC802214
:10199D0043BC40E5BC30E5FB000053BCDFE5BEC4F5
:1019AD0013135403FD7C00AFBDEF75F004A42DFEA1
:1019BD00EC35F090034EF0A3CEF090034EE0FEA375
:1019CD00E07805C333CE33CED8F9FF7C007D051208
:1019DD00074E90034EEEF0A3EFF0E4FCFD900331C3
:0819ED001208637F660212CFAD
:101DC100121CF7121DDD121D41121DA512151E90C8
:0C1DD100034BE060F7E4F012199D80F075
:080003008F993099FDC299228A
:03002300021B19A4
:101B1900C0E0C0F0C083C082C0D075D000C000C092
:0D1B290001C002C003C004C005C006C00713
:071B3600AF99C298121201E1
:101B3D00D007D006D005D004D003D002D001D000FC
:0B1B4D00D0D0D082D083D0F0D0E032A6
:03000B00020F8958
:100F8900C0E0C0F0C083C082C0D075D000C000C02E
:0D0F990001C002C003C004C005C006C007AF
:100FA60090034CE0FCA3E0FDC39464EC940040770E
:100FB6007E2B7F3312074E7C017DF412073CC374EF
:100FC600FF9FFF74FF9EFEE49400FDE49400FCE4A2
:100FD600FB7A01F9F8121A93AF038F8A90034CE05B
:100FE600FCA3E0FD7E2B7F3312074E7C017DF412BD
:100FF600073CC374FF9FFF74FF9EFEE49400FDE46C
:101006009400FCE4FB7A01F9F8121A938F8C900392
:1010160047E4F0A3F0B2CC90034AE004F0700690E7
:101026000349E004F0805C90034CE0FEA3E0FFC3BC
:101036009464EE9400504C758AAE758CFBEF4E703E
:1010460004D2CC803E900348E004F070069003473B
:10105600E004F090034CE0FCA3E0FD7E137F8812D1
:10106600074ED3900348E09F900347E09E4014B29A
:10107600CCE4F0A3F090034AE004F0700690034934
:10108600E004F090034CE0FEA3E07802C333CE33D5
:10109600CED8F9FFD390034AE09F900349E09E40E3
:0810A60007E4F0A3F0A304F03D
:1010AE00D007D006D005D004D003D002D001D00096
:0B10BE00D0D0D082D083D0F0D0E03240
:101BAE0041033F0043034400000042034200004251
:091BBE000340000042033D000059
:10167F00EFC39430400CEFD39439500674D02FFF42
:10168F008022EFC39441400CEFD394465006EF24D1
:10169F00C9FF8010EFC39461400AEFD394665004E2
:1016AF00EF24A9FFEF540FC454F0FFEDC394304063
:1016BF000CEDD39439500674D02DFD801EEDC394DC
:1016CF00414008EDD394465002800CEDC394614025
:1016DF000AEDD394665004ED24A9FDED540F4FFF8E
:0116EF0022D8
:0B15960090031FEBF0A3EAF0A3E9F0C4
:1015A100A312086F0000000090031FE0FBA3E0FA04
:1015B100A3E04A4B7005FFFEFDFC229003221208B6
:1015C1006F0000000090031FE0FBA3E475F001121F
:1015D10007B9A9F0FA1206C26021900322E0FCA328
:1015E100E0FDA3E0FEA3E02401FFE43EFEE43DFDB7
:1015F100E43CFC90032212086380CA900322E0FCC1
:09160100A3E0FDA3E0FEA3E0FF5D
:01160A0022BD
:1016F0007B017A0379449002F8E4F07403A3F0E4E8
:01170000FDEB
:0B1701009002F4EBF0A3EAF0A3E9F083
:10170C009002FAEBF0A3EAF0A3E9F09002F4E0FB0C
:10171C00A3E0FAA3E04A4B7004FBFAF9229002F81A
:10172C0074FFF5F01207B945F060169002FAE0FB71
:10173C00A3E475F0011207B9A9F0FAED12070880BD
:0C174C00DC9002F4E0FBA3E0FAA3E0F95B
:01175800226E
:0B0B7300900326EBF0A3EAF0A3E9F0EA
:100B7E0090032EEBF0A3EAF0A3E9F0900329E0F93D
:100B8E00A3E0FAA3E0900331C9F0A3EAF0A3E9F0E1
:100B9E00900326E0FBA3E0FAA3E04A4B600CA3E02F
:100BAE00FBA3E0FAA3E04A4B70077B007A007900C2
:100BBE0022900331E0FBA3E0FAA3E0F9C003C002E8
:100BCE00C00190032EA3E0FAA3E0F9D3D082D08324
:100BDE00D0E0E99582EA95834033900331A3E0FAA1
:100BEE00A3E0F990032CE0FEA3E0FFE92FF9EA3E23
:100BFE00FAC003C002C001A3A3E0FAA3E0F9D3D068
:100C0E0082D083D0E0E99582EA95834056E4900342
:100C1E0034F0A3F090032CE0FEA3E0FF900334E049
:100C2E00FCA3E0FDC39FEC9E4003020CCE9003316B
:100C3E00E0FBA3E0FAA3E0F98D828C831206DBFFC2
:100C4E0090032EE0FBA3E0FAA3E0F98D828C83EFF4
:100C5E0012071A900335E004F07006900334E00496
:100C6E00F080B190032CE0FFA3E0900334CFF0A30B
:100C7E00EFF0900334E0FEA3E0FFD39400EE940077
:100C8E00403E900331E0FBA3E0FAA3E0F9EF24FF2E
:100C9E00FFEE34FFFE8F82F5831206DBFD90032EEE
:100CAE00E0FBA3E0FAA3E0F98F828E83ED12071A20
:100CBE00900335E024FFF0900334E034FFF080B26F
:0B0CCE00900326E0FBA3E0FAA3E0F98E
:010CD90022F8
:1013740090031EEBF0A3EAF0A3E9F0900324E070DD
:1013840002A3E07003FEFF2290032474FFF5F01221
:1013940007A345F0604D900321E0FBA3E0FAA3E02E
:1013A400F91206C2FF90031EE0FBA3E0FAA3E0F9E2
:1013B4001206C2B5072DE92401F9E43AFA90031E96
:1013C400EBF0A3EAF0A3E9F0A3E0FBA3E0FAA3E0C7
:1013D4002401F9E43AFA900321EBF0A3EAF0A3E93B
:1013E400F080A5900321E0FBA3E0FAA3E0F9120644
:1013F400C2FF90031EE0FBA3E0FAA3E0F91206C2C9
:08140400C39FFFE49400FE22E7
:100E3700E4900324F0A3F0A3EBF0A3EAF0A3E9F016
:100E47001206C2FF7E00900322EEF0A3EFF0121EFF
:100E5700574078900322A3E0FF12000E501E900324
:100E670026E0FBA3E475F0011207A3A9F0FA120626
:100E7700C2FF900322E4F0A3EFF080D7900322E0B3
:100E8700FEA3E0FFEE7033EF24D5601224FE702A34
:100E9700900325E004F07006900324E004F090032B
:100EA70026E0FBA3E475F0011207A3A9F0FA1206E6
:100EB700C2FF900322E4F0A3EFF0900322A3E0FF28
:100EC700121E574006E4FFFEFDFC22900322E0FEBF
:100ED700A3E0FFC374309FFFE49EFE3395E0FD80DF
:100EE7006C900326E0FBA3E475F0011207A3A9F0B9
:100EF700FA1206C2FF7E00900322EEF0A3EFF01273
:100F07001E57505290031EE0FCA3E0FDA3E0FEA392
:100F1700E0FFE47B0AFAF9F81207CF90031E1208E4
:100F27006390031EE0F8A3E0F9A3E0FAA3E0FBA3B4
:100F3700E0FEA3E0FFC374309FFFE49EFE3395E01D
:100F4700FDFCEB2FFFEA3EFEE93DFDE83CFC90038C
:100F57001E120863808B900324E07002A3E06010E8
:100F670090031EE0FCA3E0FDA3E0FEA3E0FF8011D9
:100F770090031EE0FCA3E0FDA3E0FEA3E0FF120840
:010F87001E4B
:010F88002246
:1018260090036B12086390036BE0FCA3E0FDA3E05A
:10183600FEA3E0FF781812083DEF12070890036B2D
:10184600E0FCA3E0FDA3E0FEA3E0FF781012083D54
:10185600900001EF12071A90036BE0FCA3E0FDA3D2
:10186600E0FEA3E0FF780812083D900002EF1207A1
:101876001A90036BA3A3A3E0FF900003EF02071ADD
:0B10C900900332EBF0A3EAF0A3E9F083
:1010D400A312086F000000001206C2FFE4FCFDFE2C
:1010E400900335120863900335E0FCA3E0FDA3E010
:1010F400FEA3E0FF780812085090033512086390AD
:101104000335E0F8A3E0F9A3E0FAA3E0FBC000C0D4
:1011140001C002C003900332E0FBA3E0FAA3E0F9AC
:101124009000011206DBFFD003D002D001D000EB07
:101134004FFFEAFEE9FDE8FC9003351208639003D3
:1011440035E0FCA3E0FDA3E0FEA3E0FF780812086D
:1011540050900335120863900335E0F8A3E0F9A337
:10116400E0FAA3E0FBC000C001C002C00390033258
:10117400E0FBA3E0FAA3E0F99000021206DBFFD043
:1011840003D002D001D000EB4FFFEAFEE9FDE8FCFA
:10119400900335120863900335E0FCA3E0FDA3E05F
:1011A400FEA3E0FF780812085090033512086390FC
:1011B4000335E0F8A3E0F9A3E0FAA3E0FBC000C024
:1011C40001C002C003900332E0FBA3E0FAA3E0F9FC
:1011D4009000031206DBFFD003D002D001D000EB55
:1011E4004FFFEAFEE9FDE8FC900335120863900323
:0C11F40035E0FCA3E0FDA3E0FEA3E0FF5B
:0112000022CB
:061ED500900074E0FF2202
:0C1E8000E4900074F0FDFC7F0402175990
:061EDB00900071E0FF22FF
:0E18860090035FEFF0A3EBF0A3EAF0A3E9F00C
:10189400E4FFFE900073E0640170020F2290035F86
:1018A400E0FD121CCBE4FD121CCB900363E0FD129F
:1018B4001CCB900364E0FD121CCB900360E0FBA3FF
:1018C400E0FAA3E0F9A3E0FDA3E0900324CDF0A3A4
:1018D400EDF012161CAD07AC067F071217597F01F5
:0118E40022E1
:071AD700900377EDF0AC076E
:101ADE00E4FFFE900073E0640170020F22AD041269
:101AEE001CCB7D01121CCBE4FD121CCB7D01121C04
:101AFE00CB900377E07003FD80027D01121CCBAD0D
:0A1B0E0007AC067F071217597F018C
:011B180022AA
:0212CF00AD0769
:1012D100E4FFFE900073E0640170020F22121CCB48
:1012E1007D02121CCBE4FD121CCB7D04121CCBC071
:1012F10006C007900331E0FCA3E0FDA3E0FEA3E0FC
:10130100FF781812083DAD07D007D006121CCBC0DC
:1013110006C007900331E0FCA3E0FDA3E0FEA3E0DB
:10132100FF781012083DAD07D007D006121CCBC0C4
:1013310006C007900331E0FCA3E0FDA3E0FEA3E0BB
:10134100FF780812083DAD07D007D006121CCBC0AC
:1013510006C007900331E0FCA3A3A3E0FFE4AD07BF
:10136100D007D006121CCBAD07AC067F0712175968
:021371007F01FA
:011373002257
:0E18E500900365EFF0A3EBF0A3EAF0A3E9F0A7
:1018F300E4FFFE900073E0640170020F2290036521
:10190300E0FD121CCB7D03121CCB900369E0FD129A
:101913001CCB90036AE0FD121CCB900366E0FBA393
:10192300E0FAA3E0F9A3E0FDA3E0900324CDF0A344
:10193300EDF012161CAD07AC067F071217597F0195
:011943002281
:071BD300900378EDF0AC0770
:101BDA00E4FFFE900073E0640170020F22AD04126C
:101BEA001CCB7D04121CCBE4FD121CCB7D01121C04
:101BFA00CB900378E0FD121CCBAD07AC067F071231
:041C0A0017597F01E6
:011C0E0022B3
:020CDA00AD0764
:100CDC00E490035DF0A3F0900073E0640170037F77
:100CEC00012290035DE0FEA3E0FF121CCB90035D9C
:100CFC00EEF0A3EFF07D05121CCB90035DEEF0A39C
:100D0C00EFF0E4FD121CCB90035DEEF0A3EFF0903E
:100D1C000359E0FCA3E0FDA3E0FEA374FFFFE47B1A
:100D2C00FFFAF9F8C312082C702090035DE0FEA3C3
:100D3C00E0FF7D01121CCB90035DEEF0A3EFF09071
:100D4C000359A3A3A3E0FD020E1C900359E0FCA3DE
:100D5C00E0FDA3A374FFFFFEE47BFF7AFFF9F8C369
:100D6C0012082C90035D7009E0FEA3E0FF7D028069
:100D7C0057E0FEA3E0FF7D04121CCB90035DEEF068
:100D8C00A3EFF0C006C007900359E0FCA3E0FDA35D
:100D9C00E0FEA3E0FF781812083DAD07D007D0069F
:100DAC00121CCB90035DEEF0A3EFF0C006C00790D1
:100DBC000359E0FCA3E0FDA3E0FEA3E0FF781012D2
:100DCC00083DAD07D007D006121CCB90035DEEF0AA
:100DDC00A3EFF0C006C007900359E0FCA3E0FDA30D
:100DEC00E0FEA3E0FF780812083DAD07D007D0065F
:100DFC00121CCB90035DEEF0A3EFF0C006C0079081
:100E0C000359E0FCA3A3A3E0FFE4AD07D007D00691
:100E1C00121CCB90035DEEF0A3EFF090035DE0FCB1
:0A0E2C00A3E0FD7F071217597F01B4
:010E36002299
:0D1E6600900373ECF0A3EDF01206C2FF2212
:0D1E7300900375ECF0A3EDF01206C2FF2203
:0B1E9800900330ECF0A3EDF00210C945
:101201009002EDEFF09000E3E0FBA3E0FAA3E0F938
:10121100C003C002C001900075A3E0FAA3E0F9D3B6
:10122100D082D083D0E0E99582EA95834023900073
:10123100E3A3E0FAA3E0AE02FF900075A3E0FAA3F6
:10124100E09FFFEA9EFEC3EF946BEE6480948050B2
:101251007C9000E3E0FBA3E0FAA3E0F9C003C00245
:10126100C001900075A3E0FAA3E0F9C3D082D08356
:10127100D0E0E99582EA95835019900075A3A3E027
:10128100AE02FF9000E3A3E0FAA3E0C39FFFEA9E52
:101291004F603A900075A3E0FAA3E0C39000719506
:1012A10082EA9583400E9000757401F0A37400F0FA
:1012B100A37406F09002EDE0FF900075E0FBA3E45B
:0E12C10075F0011207B9A9F0FAEF1207082222
:050994009002F2EFF0FB
:10099900E4A3F0900345E0900344F0900346E0900F
:1009A9000345F0A3EFF0900344E064557053A3E0CE
:1009B90064AA704DA3E070497B017A0079789002AE
:1009C900F8F0746B1216FD9003297401F0A37403F7
:1009D900F0A37444F0A3E4F0A37403F07B017A005C
:1009E9007978120B731216F0900340E4F0A37403A4
:1009F900F090033F7401F0E4900342F0A3F0020B7E
:100A09006D90033FE07003020B6D24FE603C14609F
:100A19005F147003020AE8147003020B22240460B5
:100A290003020B479002F2E0FF900340E475F001E6
:100A39001207B9FC747825F0F58274003CF583EF50
:100A4900F090033F7402F0020B6D9002F2E0FF9008
:100A59000340E475F0011207B9FC747825F0F582BA
:100A690074003CF583EFF090033F7403F0020B6DC3
:100A79009002F2E0FF900340E475F0011207B9FC1F
:100A8900747825F0F58274003CF583EFF09003400B
:100A9900E0FEA3E02476F58274003EF583E0FE9043
:100AA9000340E0FCA3E02477F58274003CF583E081
:100AB900FDEDFF900342EEF0A3EFF0900342E0FE5C
:100AC900A3E0FFD3946BEE940040028071D3EF94BE
:100AD90000EE940090033F403B7404F0020B6D90CC
:100AE90002F2E0FF900340E475F0011207B9FC74CB
:100AF9007825F0F58274003CF583EFF0900343E02C
:100B090024FFF0900342E034FFF0E07002A3E070AC
:100B19005390033F7405F0804B9002F2E0FF90037D
:100B290040E475F0011207B9FC747825F0F5827478
:100B3900003CF583EFF09002F37401F08026121661
:100B4900F07B017A0079789002F8E4F0A3746BF0F5
:100B5900121701E4900340F0A3F090033FF09003D3
:090B690042F0A3F09002F3E0FF5A
:010B72002260
:10151E00E49002EEF0A3F0A3F0A3F0C390033EE03C
:10152E00946B90033DE09400505D121C0FD3EF942A
:10153E00007480948040501217C1120994EF6047D6
:10154E00E4FFFE12002690007CE0FEA3E07C002467
:10155E0000FFEC3ECF2407CF34009002F0F0A3EF53
:10156E00F01216F07B017A0079789002F8E4F0A37D
:10157E00746BF0121701E4900340F0A3F090033F58
:07158E00F0900342F0A3F00E
:011595002233
:101D41009000757401F0A37400F0A37406F0900084
:101D5100E37401F0A37400F0A37406F090007174B1
:031D6100FFF0226E
:071BC70044036F6502660292
:031F0500020003D4
:101C730090034CE0FEA3E0FFE4FCFD900331120867
:101C8300637F651212CF90034EE0FEA3E0FFE4FCF6
:0C1C9300FD9003311208637F660212CF3F
:101B5800121E9890032C12086390032CA3A3E0FF95
:101B6800A3E090034CCFF0A3EFF090032CE0FCA38C
:101B7800E0FDA3E0FEA3E0FF9003311208637F6558
:0D1B88001212CFEF640170037F01227F0075
:011B9500222D
:101DF800EF249B7010900329E0FCA3E0FD121B5810
:0A1E080090032BEFF090032BE0FF96
:011E120022AD
:031F08007F022233
:081EB500E4FDFC7F090217594E
:081EBD00E4FDFC7F0E02175941
:091EA30090031EEFF0A3EDF02204
:0C1E8C00900350EFF0A3EDF0A3EBF02268
:061EE10090031EEFF02249
:021E1300AD0719
:0F1E1500E4FFFE121CCBAD07AC067FE1021759AC
:091EAC0090031EEFF0A3EDF022FB
:021E2400AD0708
:0F1E2600E4FFFE121CCBAD07AC067FE20217599A
:061EE70090031EEFF02243
:021E3500AD07F7
:0F1E3700E4FFFE121CCBAD07AC067FE402175987
:061EED0090031EEFF0223D
:021E4600AD07E6
:0F1E4800E4FFFE121CCBAD07AC067FE502175975
:061EF30090031EEFF02237
:101D8600E4FFFEED6408600122900324E4F0A374EE
:0E1D960008F012161CAD07AC067FE6121759B6
:011DA400221C
:061EF90090031EEFF02231
:081EC500E4FDFC7FE702175960
:061EFF0090031EEFF0222B
:101C9F00E4FFFEFBFAF9900324F0A37403F012168D
:101CAF001C7B007A007900900324E4F0A37403F006
:0C1CBF0012161CAD07AC067FE902175995
:0100220022BB
:101D6400767064376878726300312E302E300074D8
:101D740072756500303030303030303030303030D3
:021D840000005D
:041BCE0041000000D2
:081CCB00900335EEF0A3EFF0E9
:101CD30024ECF974003EFA7B01ED120708900336F9
:101CE300E004F07006900335E004F0900335E0FE65
:031CF300A3E0FF6C
:011CF60022CB
:10160B007E007B007A007900900324E4F0A374033E
:01161B00F0DE
:10161C00900321EBF0A3EAF0A3E9F090031FEEF0A6
:03162C00A3EFF039
:10162F0024ECF974003EFA7B01C002C001A3E0F97B
:10163F00A3E0FAA3E0900329C9F0A3EAF0A3E9F02D
:10164F00900324E0FFA3E090032CCFF0A3EFF0D0A2
:10165F0001D002120B73900324E0FEA3E0FF90036E
:0F166F0020E02FF090031FE03EF0E0FEA3E0FF2D
:01167E002249
:1019F500900337EBF0A3EAF0A3E9F0A3ECF0A3ED35
:101A0500F0900337E0FBA3E0FAA3E04A4B6034A370
:101A1500E07002A3E0602C90033A74FFF5F0120722
:101A2500B945F0601E900337E0FBA3E0FAA3E0F9A7
:101A35001206C2FF121F05900338E475F001120764
:041A4500A380D42284
:101A4900900337EBF0A3EAF0A3E9F0A3ECF0A3EDE0
:011A5900F09C
:101A5A00E4A3F0FFFED390033BE09F90033AE09E9D
:101A6A004021900337E0FBA3E475F0011207B9A9FE
:101A7A00F0FA1206C2FD90033CE02DF00FBF000100
:081A8A000E80D290033CE0FF46
:011A92002231
:08175900900335ECF0A3EDF064
:101761009000E67455F0A374AAF0E4A3F0A3EFF09F
:10177100900335E0FCA3E0FDEC9000EAF0EDA3F06E
:101781009003362407F0900335E03400F07B017AB2
:101791000079E6A3E024FFFD900335E034FFFC125D
:1017A1001A49AE07900335E0FCA3E0FD24E5F5827C
:1017B10074003CF583EFF07B017A0079E60219F5BC
:101D1C00E4FF900000E0700DFEFD121CCB90000063
:101D2C007401F080077E007D01121CCBEFFD7C005E
:051D3C00E4FF0217594D
:10194400E490031EF07BFF7A1D79641215969003D0
:1019540024EEF0A3EFF090031EE0FF7E007BFF7AFD
:101964001D796412161C90031EEFF07BFF7A1D791B
:101974006D121596900324EEF0A3EFF090031EE091
:10198400FF7E007BFF7A1D796D12161C90031EEFFB
:09199400F0FD7C007F01021759EF
:081ECD00E4FDFC7F020217593D
:051C4400900325EFF004
:101C4900121F08E4FEEEC39F501D75F002EEA42496
:101C59006FF582E5F03403F583E0FD900325E0FCA0
:091C6900ED6C60030E80DEAF0695
:011C7200224F
:0B14980090031EEBF0A3EAF0A3E9F0C4
:1014A3001206C2900321F0FD9000011206DB9003A7
:1014B30022F09000021206DB900323F0A3E4F090E5
:1014C30000031206DBFF900324E02FF0900323E0D8
:1014D3003400F0AF05121C4475F002EFA42470F53C
:1014E30082E5F03403F583E0FF900322E06F6003AD
:1014F3007F0022900321E0FF90031EE0FBA3E0FAAC
:10150300A3E02404F9E43AFA900323E0FDA3E09076
:0A1513000329CDF0A3EDF0121DF83E
:01151D0022AB
:080026009002F2EEF0A3EFF0EE
:10002E00E49002FBF09002F2E0FEA3E0247BF58266
:10003E0074003EF583E0900301F0780C7C037D01A3
:10004E007BFF7A1D79787E007F0E12069C9003014D
:10005E00E01208A000A80000AB0100AE0200B10340
:10006E0000D80400DF0601DA0801DD0E0596A102B4
:10007E003DE00252E10510E20525E4053AE5054FA3
:10008E00E60564E70579E80599EA0599EB0599EC2B
:10009E000599ED0599EE000005CB021D1C021944D1
:1000AE00021ECD9002F2E0FEA3E0247EF5827400E3
:1000BE003EF583E0900071F064016003E07003127E
:1000CE000000E4FDFC7F030205939000747401F0C0
:1000DE00229002F2E0FCA3E0FD247CF58274003C49
:1000EE00F583E09002FFF0A3E4F0747D2DF58274A9
:1000FE00003CF583E0FF900300E02FF09002FFE05C
:10010E003400F0E49002FDF0A3F09002FFE0FEA3B5
:10011E00E0FF9002FDE0FCA3E0FDC39FEC9E4003D8
:10012E000205CB9002F3E02DFF9002F2E03CFE744C
:10013E00802FF58274003EF583E07F00FEE4FCFD27
:10014E009002F71208639002F7E0F8A3E0F9A3E03B
:10015E00FAA3E0FB9002FDE0FEA3E0FF9002F3E0C5
:10016E002FFF9002F2E03EFE74812FF58274003E66
:10017E00F583E0FFE4FCFDFEEB2FFFEE3AFEED39DA
:10018E00FDEC38FC9002F71208639002F2E0FEA339
:10019E00E0247EF974003EFA7B019002FDE0FEA39E
:1001AE00E029F9EA3EFA1214989002FCEFF0900260
:1001BE00F7A3A3E0FEA3E02404FFE43EFE9002FEBC
:1001CE00E02FF09002FDE03EF0020118021C739049
:1001DE0002F2E0FEA3E02485F974003EFA7B019062
:1001EE00032174FFF0A3741DF0A37473F0A3E4F065
:1001FE00A37404F0121374EF4E702E9002F2E0FE10
:10020E00A3E0FF2493F58274003EF583E024D075BD
:10021E00F00AA4FD74942FF58274003EF583E02459
:10022E00D02DF404FD7F018003E4FDFF021EA39098
:10023E0002F2E0FEA3E0247EF58274003EF583E038
:10024E00FF021EE19002F2E0FEA3E0FF247EF582A3
:10025E0074003EF583E09002FCF060030204BF746C
:10026E007F2FF58274003EF583E060030203209039
:10027E0002F2E0FCA3E0FD2480F58274003CF583DD
:10028E00E024E2FEE43407900302F0A3CEF0748182
:10029E002DF58274003CF583E0900304F09002F299
:1002AE00E0FEA3E0FF2482F58274003EF583E09029
:1002BE000305F074832FF58274003EF583E09003FE
:1002CE0006F09002F2A3E02484F58274003EF583DA
:1002DE00E0900307F074852FF58274003EF583E0FD
:1002EE00900308F09002F2A3E02486F58274003E9B
:1002FE00F583E0900309F074872FF58274003EF5C4
:10030E0083E0FE9002F2A3E02488F58274003C02A2
:10031E00045E9002F2E0FEA3E0247FF58274003EBC
:10032E00F583E0640170749002F2A3E02480F97406
:10033E00003EFA9003297401F0A3EAF0A3E9F0A3BA
:10034E00E4F0A3740DF07B017A03790C120B737B2E
:10035E00017A03790C120E3790031A120863900279
:10036E00F2E0FEA3E0FF248DF58274003EF583E0FB
:10037E00C39408E494007C0050047D0180027D004B
:10038E00748E2FF58274003EF583E07E002DFFEE15
:10039E003C90030AF0A3EFF002046F9002F2E0FA31
:1003AE00A3E0FB247FF58274003AF583E0640260DB
:1003BE000302046F9002F2E0FCA3E0FD2480F582BC
:1003CE0074003CF583E024D0FEE43407900302F081
:1003DE00A3CEF074812DF58274003CF583E090037A
:1003EE0004F09002F2E0FEA3E0FF2482F582740096
:1003FE003EF583E0900305F074832FF58274003E82
:10040E00F583E0900306F09002F2A3E02484F582D7
:10041E0074003EF583E0900307F074852FF5827427
:10042E00003EF583E0900308F09002F2A3E02486EC
:10043E00F58274003EF583E0900309F074872FF582
:10044E008274003EF583E0FE74882BF58274003AC8
:10045E00F583E07C002400FFEC3E90030AF0A3EF4E
:10046E00F09002F2E0FEA3E0247FF58274003EF5E8
:10047E0083E0FDC00578207C037D017B017A037942
:10048E00027E007F0812069C90030AE0FFA3E09014
:10049E000328CFF0A3EFF090031AE0FCA3E0FDA336
:1004AE00E0FEA3E0FF90032A120863D005E4FF806C
:1004BE004E9002F2E0FEA3E0247FF58274003EF53A
:1004CE0083E0FDC00578207C037D017B017A0379F2
:1004DE00027E007F0812069C90030AE0FFA3E090C4
:1004EE000328CFF0A3EFF090031AE0FCA3E0FDA3E6
:1004FE00E0FEA3E0FF90032A120863D0057F0102FD
:10050E001EAC9002F2E0FEA3E0247EF58274003E63
:10051E00F583E0FF021EE79002F2E0FEA3E0247EE8
:10052E00F58274003EF583E0FF021EED9002F2E0CC
:10053E00FEA3E0247EF58274003EF583E0FF021EEA
:10054E00F39002F2E0FEA3E0247EF58274003EF505
:10055E0083E0FF021EF99002F2E0FEA3E0247EF596
:10056E008274003EF583E0FF021EFF9002FBE0FF67
:10057E0012160B9002FBEFF012160B9002FBEFF02F
:10058E00FD7C007FE80217590200229002F2E0FC87
:10059E00A3E0FD247CF58274003CF583E09002FF1D
:1005AE00F0A3E4F0747D2DF58274003CF583E0FF3A
:0D05BE00900300E02FF09002FFE03400F009
:0105CB00220D
:101C0F009000E3E0FBA3E0FAA3E0F9C003C002C039
:101C1F0001900075E0FBA3E0FAA3E0F9D082D08336
:101C2F00D0E06B7008E965827003EA658360037F1B
:051C3F0001227F0022DC
:1017C100900075E0FBA3E0FAA3E0F9C003C002C0FA
:1017D100019000E3E0FBA3E0FAA3E0F9D082D0831B
:1017E100D0E06B7008E965827003EA65836035902B
:1017F10000E3A3E0FAA3E0C39000719582EA958328
:10180100400E9000E37401F0A37400F0A37406F09D
:101811009000E3E0FBA3E475F0011207B9A9F0FA27
:041821001206C2FFEA
:0118250022A0
:0300000002140CDB
:0C140C00787FE4F6D8FD758107021453C8
:1005CC00E709F608DFFA8046E709F208DFFA803E11
:1005DC0088828C83E709F0A3DFFA8032E309F608FE
:1005EC00DFFA8078E309F208DFFA807088828C8366
:1005FC00E309F0A3DFFA806489828A83E0A3F6081A
:10060C00DFFA805889828A83E0A3F208DFFA804CF3
:10061C0080D280FA80C680D4806980F280338010CA
:10062C0080A680EA809A80A880DA80E280CA803333
:10063C0089828A83ECFAE493A3C8C582C8CCC583AB
:10064C00CCF0A3C8C582C8CCC583CCDFE9DEE7807B
:10065C000D89828A83E493A3F608DFF9ECFAA9F0FA
:10066C00EDFB2289828A83ECFAE0A3C8C582C8CC50
:10067C00C583CCF0A3C8C582C8CCC583CCDFEADE69
:10068C00E880DB89828A83E493A3F208DFF980CCCB
:10069C0088F0EF60010E4E60C388F0ED2402B404C4
:1006AC000050B9F582EB2402B4040050AF2323456B
:0606BC00822390061C736E
:1006C200BB010689828A83E0225002E722BBFE0236
:0906D200E32289828A83E4932269
:1006DB00BB010CE58229F582E5833AF583E02250D4
:1006EB0006E92582F8E622BBFE06E92582F8E2221E
:0D06FB00E58229F582E5833AF583E4932238
:10070800BB010689828A83F0225002F722BBFE01D0
:02071800F322CA
:10071A00F8BB010DE58229F582E5833AF583E8F015
:10072A00225006E92582C8F622BBFE05E92582C8C1
:02073A00F222A9
:10073C00EF8DF0A4A8F0CF8CF0A428CE8DF0A42ED1
:02074C00FE228B
:10074E00BC000BBE0029EF8DF084FFADF022E4CC8F
:10075E00F875F008EF2FFFEE33FEEC33FCEE9DEC58
:10076E00984005FCEE9DFE0FD5F0E9E4CEFD22ED9E
:10077E00F8F5F0EE8420D21CFEADF075F008EF2FE8
:10078E00FFED33FD4007985006D5F0F222C398FDD9
:05079E000FD5F0EA2276
:1007A300C5F0F8A3E028F0C5F0F8E58215827002E1
:0607B3001583E038F0227E
:1007B900A3F8E0C5F025F0F0E582158270021583F3
:0607C900E0C838F0E82250
:1007CF00E88FF0A4CC8BF0A42CFCE98EF0A42CFCC9
:1007DF008AF0EDA42CFCEA8EF0A4CDA8F08BF0A447
:1007EF002DCC3825F0FDE98FF0A42CCD35F0FCEBA6
:1007FF008EF0A4FEA9F0EB8FF0A4CFC5F02ECD396B
:0F080F00FEE43CFCEAA42DCE35F0FDE43CFC22D7
:101A9300C2D5E830E70FB2D5E4C39BFBE49AFAE47E
:101AA30099F9E498F8EC30E717B2D5121AC912097C
:101AB30002E4C39BFBE49AFAE499F9E498F88003FF
:101AC30012090230D50DE4C39FFFE49EFEE49DFDA1
:041AD300E49CFC2271
:0E081E00C3E49FFFE49EFEE49DFDE49CFC22EB
:10082C00EB9FF5F0EA9E42F0E99D42F0E89C45F022
:01083C002299
:10083D00E8600FECC313FCED13FDEE13FEEF13FF99
:03084D00D8F122BD
:10085000E8600FEFC333FFEE33FEED33FDEC33FC06
:03086000D8F122AA
:0C086300ECF0A3EDF0A3EEF0A3EFF02208
:10086F00A8828583F0D083D0821208861208861260
:10087F000886120886E473E493A3C583C5F0C58385
:10088F00C8C582C8F0A3C583C5F0C583C8C582C8D3
:01089F002236
:1008A000D083D082F8E4937012740193700DA3A3E7
:1008B00093F8740193F5828883E4737402936860FB
:0608C000EFA3A3A380DFFB
:0F1E5700EFC394304007EF943A50028001C3224A
:10000E00EFC394094005EF940E4004EFB42003D3E0
:04001E008001C32278
:10141800021DC1E493A3F8E493A34003F68001F20C
:1014280008DFF48029E493A3F85407240CC8C333D5
:10143800C4540F4420C8834004F456800146F6DFA4
:10144800E4800B0102040810204080901B96E47E83
:10145800019360BCA3FF543F30E509541FFEE49399
:10146800A360010ECF54C025E060A840B8E493A360
:10147800FAE493A3F8E493A3C8C582C8CAC583CA8B
:10148800F0A3C8C582C8CAC583CADFE9DEE780BE43
:011BD2000012
:1008C60075F008758200EF2FFFEE33FECD33CDCCE9
:1008D60033CCC58233C5829BED9AEC99E58298406C
:1008E6000CF582EE9BFEED9AFDEC99FC0FD5F0D649
:1008F600E4CEFBE4CDFAE4CCF9A88222B800C1B973
:100906000059BA002DEC8BF084CFCECDFCE5F0CBB0
:10091600F97818EF2FFFEE33FEED33FDEC33FCEBE9
:1009260033FB10D703994004EB99FB0FD8E5E4F9A4
:10093600FA227818EF2FFFEE33FEED33FDEC33FC91
:10094600C933C910D7059BE99A4007EC9BFCE99A85
:10095600F90FD8E0E4C9FAE4CCFB2275F010EF2FCA
:10096600FFEE33FEED33FDCC33CCC833C810D707CA
:100976009BEC9AE899400AED9BFDEC9AFCE899F805
:0E0986000FD5F0DAE4CDFBE4CCFAE4C8F92298
:00000001FF
