:1018140042034600004103410042034400014103E6
:1018240043014103420042033D000042033F0000E4
:101A8C0053A23F43A24043B20853B1F77598504359
:101A9C008E40538EFE53890F758BE0758DFEC2AB55
:051AAC00D2ACD28E2235
:101B530043B20353B1FC438E805389F0758ACD752C
:0B1B63008CD4C28DD2A9D2AFD28C224C
:101B1B0053CADF43C92043BA8090FEA8743FF053E9
:0C1B2B00BA7F43DE0F43BC0543BC8022A0
:1017780043BC400000E5BC30E5FB53BCDFE5BEC41C
:1017880013135403FD7C00AFBDEF75F004A42DFEC8
:10179800EC35F0900346F0A3CEF0900346E0FEA3AC
:1017A800E0FF7D1D1207327D05120744900346EEC7
:1017B800F0A3EFF0E4FCFD9003311208487F6602C5
:0217C80011838B
:101B3700121A8C121B53121AD6121B1B1213D29095
:0C1B47000341E060F7E4F012177880F032
:080003008F993099FDC299228A
:030023000219239C
:10192300C0E0C0F0C083C082C0D075D000C000C08A
:0D19330001C002C003C004C005C006C0070B
:07194000AF99C2981210B527
:10194700D007D006D005D004D003D002D001D000F4
:0B195700D0D0D082D083D0F0D0E0329E
:03000B00020B588D
:100B5800C0E0C0F0C083C082C0D075D000C000C063
:0D0B680001C002C003C004C005C006C007E4
:100B7500900342E0FF7E006401700BA3E07007D292
:100B8500B1C2B0020C84900343E064016003020C1F
:100B950084EF4E6003020C84A3E0FCA3E0FDC39444
:100BA50064EC940040797E2B7F331207447C017DF1
:100BB500F4120732C374FF9FFF74FF9EFEE4940096
:100BC500FDE49400FCE4FB7A01F9F812185DAF032B
:100BD5008F8A900344E0FCA3E0FD7E2B7F33120750
:100BE500447C017DF4120732C374FF9FFF74FF9E9E
:100BF500FEE49400FDE49400FCE4FB7A01F9F812AC
:100C0500185D8F8C90033DE4F0A3F0B2B1B2B090C3
:100C15000340E004F0700690033FE004F08060902C
:100C25000344E0FEA3E0FFC39464EE9400505075C6
:100C35008AAE758CFBEF4E7006D2B1D2B080409073
:100C4500033EE004F0700690033DE004F090034499
:100C5500E0FCA3E0FD7E137F88120744D390033E9A
:100C6500E09F90033DE09E4016B2B1B2B0E4F0A320
:100C7500F0900340E004F0700690033FE004F0902C
:100C85000344E0FEA3E07802C333CE33CED8F9FFA8
:100C9500D3900340E09F90033FE09E4007E4F0A31C
:040CA500F0A304F0C4
:100CA900D007D006D005D004D003D002D001D0009F
:0B0CB900D0D0D082D083D0F0D0E03249
:1018340041034A0043034F00000042034D000042AD
:09184400034B00004203480000C0
:0B144A0090031FEBF0A3EAF0A3E9F011
:10145500A31208540000000090031FE0FBA3E0FA6C
:10146500A3E04A4B7005FFFEFDFC22900322120803
:10147500540000000090031FE0FBA3E475F0011287
:1014850007AFA9F0FA1206B86021900322E0FCA389
:10149500E0FDA3E0FEA3E02401FFE43EFEE43DFD04
:1014A500E43CFC90032212084880CA900322E0FC29
:0914B500A3E0FDA3E0FEA3E0FFAB
:0114BE00220B
:101533007B017A03794F9002F8E4F07403A3F0E49B
:01154300FDAA
:0B1544009002F4EBF0A3EAF0A3E9F042
:10154F009002FAEBF0A3EAF0A3E9F09002F4E0FBCB
:10155F00A3E0FAA3E04A4B7004FBFAF9229002F8D9
:10156F0074FFF5F01207AF45F060169002FAE0FB3A
:10157F00A3E475F0011207AFA9F0FAED1206FE8091
:0C158F00DC9002F4E0FBA3E0FAA3E0F91A
:01159B00222D
:0B0CC400900326EBF0A3EAF0A3E9F098
:100CCF0090032EEBF0A3EAF0A3E9F0900329E0F9EB
:100CDF00A3E0FAA3E0900331C9F0A3EAF0A3E9F08F
:100CEF00900326E0FBA3E0FAA3E04A4B600CA3E0DD
:100CFF00FBA3E0FAA3E04A4B70077B007A00790070
:100D0F0022900331E0FBA3E0FAA3E0F9C003C00295
:100D1F00C00190032EA3E0FAA3E0F9D3D082D083D1
:100D2F00D0E0E99582EA95834033900331A3E0FA4E
:100D3F00A3E0F990032CE0FEA3E0FFE92FF9EA3ED0
:100D4F00FAC003C002C001A3A3E0FAA3E0F9D3D015
:100D5F0082D083D0E0E99582EA95834056E49003F0
:100D6F0034F0A3F090032CE0FEA3E0FF900334E0F7
:100D7F00FCA3E0FDC39FEC9E4003020E1F900331C6
:100D8F00E0FBA3E0FAA3E0F98D828C831206D1FF7A
:100D9F0090032EE0FBA3E0FAA3E0F98D828C83EFA2
:100DAF00120710900335E004F07006900334E0044E
:100DBF00F080B190032CE0FFA3E0900334CFF0A3B9
:100DCF00EFF0900334E0FEA3E0FFD39400EE940025
:100DDF00403E900331E0FBA3E0FAA3E0F9EF24FFDC
:100DEF00FFEE34FFFE8F82F5831206D1FD90032EA6
:100DFF00E0FBA3E0FAA3E0F98F828E83ED120710D8
:100E0F00900335E024FFF0900334E034FFF080B21C
:0B0E1F00900326E0FBA3E0FAA3E0F93B
:010E2A0022A5
:1012280090031EEBF0A3EAF0A3E9F0900324E0702A
:1012380002A3E07003FEFF2290032474FFF5F0126E
:10124800079945F0604D900321E0FBA3E0FAA3E085
:10125800F91206B8FF90031EE0FBA3E0FAA3E0F939
:101268001206B8B5072DE92401F9E43AFA90031EED
:10127800EBF0A3EAF0A3E9F0A3E0FBA3E0FAA3E014
:101288002401F9E43AFA900321EBF0A3EAF0A3E988
:10129800F080A5900321E0FBA3E0FAA3E0F9120691
:1012A800B8FF90031EE0FBA3E0FAA3E0F91206B82A
:0812B800C39FFFE49400FE2235
:100E2B00E4900324F0A3F0A3EBF0A3EAF0A3E9F022
:100E3B001206B8FF7E00900322EEF0A3EFF0121B18
:100E4B006E4078900322A3E0FF12000E501E900319
:100E5B0026E0FBA3E475F001120799A9F0FA12063C
:100E6B00B8FF900322E4F0A3EFF080D7900322E0C9
:100E7B00FEA3E0FFEE7033EF24D5601224FE702A40
:100E8B00900325E004F07006900324E004F0900337
:100E9B0026E0FBA3E475F001120799A9F0FA1206FC
:100EAB00B8FF900322E4F0A3EFF0900322A3E0FF3E
:100EBB00121B6E4006E4FFFEFDFC22900322E0FEB7
:100ECB00A3E0FFC374309FFFE49EFE3395E0FD80EB
:100EDB006C900326E0FBA3E475F001120799A9F0CF
:100EEB00FA1206B8FF7E00900322EEF0A3EFF01289
:100EFB001B6E505290031EE0FCA3E0FDA3E0FEA38B
:100F0B00E0FFE47B0AFAF9F81207C590031E1208FA
:100F1B004890031EE0F8A3E0F9A3E0FAA3E0FBA3DB
:100F2B00E0FEA3E0FFC374309FFFE49EFE3395E029
:100F3B00FDFCEB2FFFEA3EFEE93DFDE83CFC900398
:100F4B001E120848808B900324E07002A3E060100F
:100F5B0090031EE0FCA3E0FDA3E0FEA3E0FF8011E5
:100F6B0090031EE0FCA3E0FDA3E0FEA3E0FF12084C
:010F7B001461
:010F7C002252
:0B0F7D00900332EBF0A3EAF0A3E9F0D0
:100F8800A3120854000000001206B8FFE4FCFDFE9E
:100F9800900335120848900335E0FCA3E0FDA3E078
:100FA800FEA3E0FF78081208359003351208489030
:100FB8000335E0F8A3E0F9A3E0FAA3E0FBC000C022
:100FC80001C002C003900332E0FBA3E0FAA3E0F9FA
:100FD8009000011206D1FFD003D002D001D000EB5F
:100FE8004FFFEAFEE9FDE8FC90033512084890033C
:100FF80035E0FCA3E0FDA3E0FEA3E0FF78081208BB
:1010080035900335120848900335E0F8A3E0F9A3BA
:10101800E0FAA3E0FBC000C001C002C003900332A5
:10102800E0FBA3E0FAA3E0F99000021206D1FFD09A
:1010380003D002D001D000EB4FFFEAFEE9FDE8FC47
:10104800900335120848900335E0FCA3E0FDA3E0C7
:10105800FEA3E0FF7808120835900335120848907F
:101068000335E0F8A3E0F9A3E0FAA3E0FBC000C071
:1010780001C002C003900332E0FBA3E0FAA3E0F949
:101088009000031206D1FFD003D002D001D000EBAC
:101098004FFFEAFEE9FDE8FC90033512084890038B
:0C10A80035E0FCA3E0FDA3E0FEA3E0FFA8
:0110B4002219
:0718A10090032CEDF0AC07F1
:1018A800E4FFFE900073E0640170020F22AD0412A1
:1018B8001A607D01121A60E4FD121A607D01121A85
:1018C8006090032CE07003FD80027D01121A60AD68
:0A18D80007AC067F0712159C7F0184
:0118E20022E3
:02118300AD07B6
:10118500E4FFFE900073E0640170020F22121A6002
:101195007D02121A60E4FD121A607D04121A60C005
:1011A50006C007900331E0FCA3E0FDA3E0FEA3E049
:1011B500FF7818120822AD07D007D006121A60C0B2
:1011C50006C007900331E0FCA3E0FDA3E0FEA3E029
:1011D500FF7810120822AD07D007D006121A60C09A
:1011E50006C007900331E0FCA3E0FDA3E0FEA3E009
:1011F500FF7808120822AD07D007D006121A60C082
:1012050006C007900331E0FCA3A3A3E0FFE4AD070C
:10121500D007D006121A60AD07AC067F0712159CE1
:021225007F0147
:0112270022A4
:0D1B7D0090032CECF0A3EDF01206B8FF224F
:0B1B8A00900330ECF0A3EDF0020F7DA3
:1010B5009002EDEFF09000E3E0FBA3E0FAA3E0F986
:1010C500C003C002C001900075A3E0FAA3E0F9D304
:1010D500D082D083D0E0E99582EA958340239000C1
:1010E500E3A3E0FAA3E0AE02FF900075A3E0FAA344
:1010F500E09FFFEA9EFEC3EF946BEE648094805000
:101105007C9000E3E0FBA3E0FAA3E0F9C003C00292
:10111500C001900075A3E0FAA3E0F9C3D082D083A3
:10112500D0E0E99582EA95835019900075A3A3E074
:10113500AE02FF9000E3A3E0FAA3E0C39FFFEA9E9F
:101145004F603A900075A3E0FAA3E0C39000719553
:1011550082EA9583400E9000757401F0A37400F047
:10116500A37406F09002EDE0FF900075E0FBA3E4A8
:0E11750075F0011207AFA9F0FAEF1206FE2284
:050979009002F2EFF016
:10097E00E4A3F0900350E090034FF0900351E09009
:10098E000350F0A3EFF090034FE064557053A3E0D3
:10099E0064AA704DA3E070497B017A0079789002C9
:1009AE00F8F0746B1215409003297401F0A37403D0
:1009BE00F0A3744FF0A3E4F0A37403F07B017A006C
:1009CE007978120CC412153390034BE4F0A3740320
:1009DE00F090034A7401F0E490034DF0A3F0020B83
:1009EE005290034AE07003020B5224FE603C1460E6
:1009FE005F147003020ACD147003020B0724046007
:100A0E0003020B2C9002F2E0FF90034BE475F00111
:100A1E001207AFFC747825F0F58274003CF583EF75
:100A2E00F090034A7402F0020B529002F2E0FF9033
:100A3E00034BE475F0011207AFFC747825F0F582D4
:100A4E0074003CF583EFF090034A7403F0020B52EE
:100A5E009002F2E0FF90034BE475F0011207AFFC39
:100A6E00747825F0F58274003CF583EFF090034B1B
:100A7E00E0FEA3E02476F58274003EF583E0FE905E
:100A8E00034BE0FCA3E02477F58274003CF583E091
:100A9E00FDEDFF90034DEEF0A3EFF090034DE0FE61
:100AAE00A3E0FFD3946BEE940040028071D3EF94D9
:100ABE0000EE940090034A403B7404F0020B5290F7
:100ACE0002F2E0FF90034BE475F0011207AFFC74E5
:100ADE007825F0F58274003CF583EFF090034EE03C
:100AEE0024FFF090034DE034FFF0E07002A3E070BD
:100AFE005390034A7405F0804B9002F2E0FF90038E
:100B0E004BE475F0011207AFFC747825F0F5827492
:100B1E00003CF583EFF09002F37401F0802612157D
:100B2E00337B017A0079789002F8E4F0A3746BF0CD
:100B3E00121544E490034BF0A3F090034AF0900397
:090B4E004DF0A3F09002F3E0FF6A
:010B5700227B
:1013D200E49002EEF0A3F0A3F0A3F0C3900349E07F
:1013E200946B900348E09400505D1219A0D3EF94DF
:1013F20000748094804050121604120979EF6047FD
:10140200E4FFFE12002690007CE0FEA3E07C0024B4
:1014120000FFEC3ECF2407CF34009002F0F0A3EFA0
:10142200F01215337B017A0079789002F8E4F0A388
:10143200746BF0121544E490034BF0A3F090034A4E
:07144200F090034DF0A3F050
:011449002280
:101AD6009000757401F0A37400F0A37406F09000F2
:101AE600E37401F0A37400F0A37406F0900071741F
:031AF600FFF022DC
:0B184D00480352650266026701680153
:031BD3000200030A
:1018E300900344E0FEA3E0FFE4FCFD900331120803
:1018F300487F65121183900346E0FEA3E0FFE4FCFA
:10190300FD9003311208487F66121183900343E070
:10191300FD7F671218A1900342E0FD7F680218A1C2
:10196200121B8A90032C12084890032CA3A3E0FFB9
:10197200A3E0900344CFF0A3EFF090032CE0FCA38C
:10198200E0FDA3E0FEA3E0FF9003311208487F656B
:0D199200121183EF640170037F01227F00BA
:01199F002225
:101A0400121B7D900343EFF07003F08005E4900314
:101A140042F0AD077F671218A1900342E0FD7F6892
:0D1A24001218A1EF640170037F01227F0002
:011A31002292
:101A3200121B7D900342EFF07003F08005E49003E7
:101A420043F0AD077F681218A1900343E0FD7F6762
:0D1A52001218A1EF640170037F01227F00D4
:011A5F002264
:0B166900900326EBF0A3EAF0A3E9F0E9
:10167400EF2499601D14603024037045900326E024
:10168400FBA3E0FAA3E0F9A3E0FCA3E0FD121962D6
:10169400802A900326E0FBA3E0FAA3E0F9A3E0FC90
:1016A400A3E0FD121A048014900326E0FBA3E0FAE1
:1016B400A3E0F9A3E0FCA3E0FD121A3290032BEFA0
:0616C400F090032BE0FF93
:0116CA0022FD
:031BD6007F042267
:091B950090031EEFF0A3EDF02215
:061BAF0090031EEFF0227E
:091B9E0090031EEFF0A3EDF0220C
:061BB50090031EEFF02278
:061BBB0090031EEFF02272
:061BC10090031EEFF0226C
:061BC70090031EEFF02266
:061BCD0090031EEFF02260
:0100220022BB
:101AF900767064376878726300312E302E30007446
:101B09007275650030303030303030303030303040
:021B19000000CA
:04185800410000004B
:081A6000900335EEF0A3EFF056
:101A680024ECF974003EFA7B01ED1206FE90033671
:101A7800E004F07006900335E004F0900335E0FED2
:031A8800A3E0FFD9
:011A8B002238
:1014BF007E007B007A007900900324E4F0A374038C
:0114CF00F02C
:1014D000900321EBF0A3EAF0A3E9F090031FEEF0F4
:0314E000A3EFF087
:1014E30024ECF974003EFA7B01C002C001A3E0F9C9
:1014F300A3E0FAA3E0900329C9F0A3EAF0A3E9F07B
:10150300900324E0FFA3E090032CCFF0A3EFF0D0EF
:1015130001D002120CC4900324E0FEA3E0FF900369
:0F15230020E02FF090031FE03EF0E0FEA3E0FF7A
:011532002296
:10172400900337EBF0A3EAF0A3E9F0A3ECF0A3ED08
:10173400F0900337E0FBA3E0FAA3E04A4B6034A344
:10174400E07002A3E0602C90033A74FFF5F01207F6
:10175400AF45F0601E900337E0FBA3E0FAA3E0F985
:101764001206B8FF121BD3900338E475F001120778
:041774009980D42262
:1017CA00900337EBF0A3EAF0A3E9F0A3ECF0A3ED62
:0117DA00F01E
:1017DB00E4A3F0FFFED390033BE09F90033AE09E1F
:1017EB004021900337E0FBA3E475F0011207AFA98A
:1017FB00F0FA1206B8FD90033CE02DF00FBF00018C
:08180B000E80D290033CE0FFC7
:0118130022B2
:08159C00900335ECF0A3EDF023
:1015A4009000E67455F0A374AAF0E4A3F0A3EFF05E
:1015B400900335E0FCA3E0FDEC9000EAF0EDA3F02D
:1015C4009003362407F0900335E03400F07B017A71
:1015D4000079E6A3E024FFFD900335E034FFFC121C
:1015E40017CAAE07900335E0FCA3E0FD24E5F582BD
:1015F40074003CF583EFF07B017A0079E60217244E
:101AB100E4FF900000E0700DFEFD121A609000003E
:101AC1007401F080077E007D01121A60EFFD7C0039
:051AD100E4FF02159C7A
:1016CB00E490031EF07BFF7A1A79F912144A900307
:1016DB0024EEF0A3EFF090031EE0FF7E007BFF7A79
:1016EB001A79F91214D090031EEFF07BFF7A1B7955
:1016FB000212144A900324EEF0A3EFF090031EE0C5
:10170B00FF7E007BFF7A1B79021214D090031EEF31
:09171B00F0FD7C007F0102159C29
:081BA700E4FDFC7F0202159C25
:0519D500900325EFF076
:1019DA00121BD6E4FEEEC39F501D75F002EEA4243E
:1019EA0052F582E5F03403F583E0FD900325E0FC2F
:0919FA00ED6C60030E80DEAF0607
:011A030022C0
:0B134C0090031EEBF0A3EAF0A3E9F011
:101357001206B8900321F0FD9000011206D1900308
:1013670022F09000021206D1900323F0A3E4F0903C
:1013770000031206D1FF900324E02FF0900323E02F
:101387003400F0AF051219D575F002EFA42453F518
:1013970082E5F03403F583E0FF900322E06F6003FA
:1013A7007F0022900321E0FF90031EE0FBA3E0FAF9
:1013B700A3E02404F9E43AFA900323E0FDA3E090C4
:0A13C7000329CDF0A3EDF012166922
:0113D10022F9
:080026009002F2EEF0A3EFF0EE
:10002E00E49002FBF09002F2E0FEA3E0247BF58266
:10003E0074003EF583E0900301F0780C7C037D01A3
:10004E007BFF7A1B790D7E007F0E120692900301C4
:10005E00E012088500A80000AB0100AE0200B1035B
:10006E0000CE0400D50601D00801D30E058CA102E6
:10007E0033E00248E10506E2051BE40530E50545DF
:10008E00E6055AE7056FE8058FEA058FEB058FEC5D
:10009E00058FED058FEE000005C1021AB10216CBD9
:1000AE00021BA79002F2E0FEA3E0247EF58274000C
:1000BE003EF583E0900071F0E4FDFC7F03020589BC
:1000CE009000747401F0229002F2E0FCA3E0FD2493
:1000DE007CF58274003CF583E09002FFF0A3E4F01F
:1000EE00747D2DF58274003CF583E0FF900300E0F3
:1000FE002FF09002FFE03400F0E49002FDF0A3F048
:10010E009002FFE0FEA3E0FF9002FDE0FCA3E0FD05
:10011E00C39FEC9E40030205C19002F3E02DFF90B9
:10012E0002F2E03CFE74802FF58274003EF583E00F
:10013E007F00FEE4FCFD9002F71208489002F7E003
:10014E00F8A3E0F9A3E0FAA3E0FB9002FDE0FEA322
:10015E00E0FF9002F3E02FFF9002F2E03EFE74818A
:10016E002FF58274003EF583E0FFE4FCFDFEEB2FDD
:10017E00FFEE3AFEED39FDEC38FC9002F71208481E
:10018E009002F2E0FEA3E0247EF974003EFA7B01B9
:10019E009002FDE0FEA3E029F9EA3EFA12134C901C
:1001AE0002FCEFF09002F7A3A3E0FEA3E02404FF0D
:1001BE00E43EFE9002FEE02FF09002FDE03EF002E3
:1001CE00010E0218E39002F2E0FEA3E02485F9741A
:1001DE00003EFA7B0190032174FFF0A3741BF0A381
:1001EE007408F0A3E4F0A37404F0121228EF4E701A
:1001FE002E9002F2E0FEA3E0FF2493F58274003EFF
:10020E00F583E024D075F00AA4FD74942FF5827462
:10021E00003EF583E024D02DF404FD7F018003E43D
:10022E00FDFF021B959002F2E0FEA3E0247EF58214
:10023E0074003EF583E0FF021BAF9002F2E0FEA3D6
:10024E00E0FF247EF58274003EF583E09002FCF020
:10025E0060030204B5747F2FF58274003EF583E0CF
:10026E0060030203169002F2E0FCA3E0FD2480F589
:10027E008274003CF583E024E2FEE434079003022E
:10028E00F0A3CEF074812DF58274003CF583E090DE
:10029E000304F09002F2E0FEA3E0FF2482F58274E4
:1002AE00003EF583E0900305F074832FF582740011
:1002BE003EF583E0900306F09002F2A3E02484F56D
:1002CE008274003EF583E0900307F074852FF5826B
:1002DE0074003EF583E0900308F09002F2A3E02450
:1002EE0086F58274003EF583E0900309F074872F43
:1002FE00F58274003EF583E0FE9002F2A3E02488BE
:10030E00F58274003C0204549002F2E0FEA3E02455
:10031E007FF58274003EF583E0640170749002F202
:10032E00A3E02480F974003EFA9003297401F0A32F
:10033E00EAF0A3E9F0A3E4F0A3740DF07B017A03D5
:10034E00790C120CC47B017A03790C120E2B9003DC
:10035E001A1208489002F2E0FEA3E0FF248DF58207
:10036E0074003EF583E0C39408E494007C005004CE
:10037E007D0180027D00748E2FF58274003EF58320
:10038E00E07E002DFFEE3C90030AF0A3EFF0020496
:10039E00659002F2E0FAA3E0FB247FF58274003A46
:1003AE00F583E0640260030204659002F2E0FCA3B0
:1003BE00E0FD2480F58274003CF583E024D0FEE459
:1003CE003407900302F0A3CEF074812DF5827400F1
:1003DE003CF583E0900304F09002F2E0FEA3E0FF10
:1003EE002482F58274003EF583E0900305F0748359
:1003FE002FF58274003EF583E0900306F09002F232
:10040E00A3E02484F58274003EF583E0900307F0A8
:10041E0074852FF58274003EF583E0900308F0900A
:10042E0002F2A3E02486F58274003EF583E0900389
:10043E0009F074872FF58274003EF583E0FE748810
:10044E002BF58274003AF583E07C002400FFEC3E2D
:10045E0090030AF0A3EFF09002F2E0FEA3E0247FF7
:10046E00F58274003EF583E0FDC00578207C037DA7
:10047E00017B017A0379027E007F081206929003B7
:10048E000AE0FFA3E0900328CFF0A3EFF090031A49
:10049E00E0FCA3E0FDA3E0FEA3E0FF90032A120818
:1004AE0048D005E4FF804E9002F2E0FEA3E0247FE8
:1004BE00F58274003EF583E0FDC00578207C037D57
:1004CE00017B017A0379027E007F08120692900367
:1004DE000AE0FFA3E0900328CFF0A3EFF090031AF9
:1004EE00E0FCA3E0FDA3E0FEA3E0FF90032A1208C8
:1004FE0048D0057F01021B9E9002F2E0FEA3E0248D
:10050E007EF58274003EF583E0FF021BB59002F289
:10051E00E0FEA3E0247EF58274003EF583E0FF0248
:10052E001BBB9002F2E0FEA3E0247EF58274003E37
:10053E00F583E0FF021BC19002F2E0FEA3E0247EF1
:10054E00F58274003EF583E0FF021BC79002F2E0D5
:10055E00FEA3E0247EF58274003EF583E0FF021BCD
:10056E00CD9002FBE0FF1214BF9002FBEFF01214CD
:10057E00BF9002FBEFF0FD7C007FE802159C0200AD
:10058E00229002F2E0FCA3E0FD247CF58274003C94
:10059E00F583E09002FFF0A3E4F0747D2DF58274F4
:1005AE00003CF583E0FF900300E02FF09002FFE0A7
:0305BE003400F016
:0105C1002217
:1019A0009000E3E0FBA3E0FAA3E0F9C003C002C0AB
:1019B00001900075E0FBA3E0FAA3E0F9D082D083A8
:1019C000D0E06B7008E965827003EA658360037F8D
:0519D00001227F00224E
:10160400900075E0FBA3E0FAA3E0F9C003C002C0B8
:10161400019000E3E0FBA3E0FAA3E0F9D082D083D9
:10162400D0E06B7008E965827003EA6583603590E9
:1016340000E3A3E0FAA3E0C39000719582EA9583E6
:10164400400E9000E37401F0A37400F0A37406F05C
:101654009000E3E0FBA3E475F0011207AFA9F0FAF0
:041664001206B8FFB3
:01166800225F
:030000000212C029
:0C12C000787FE4F6D8FD75810702130763
:1005C200E709F608DFFA8046E709F208DFFA803E1B
:1005D20088828C83E709F0A3DFFA8032E309F60808
:1005E200DFFA8078E309F208DFFA807088828C8370
:1005F200E309F0A3DFFA806489828A83E0A3F60824
:10060200DFFA805889828A83E0A3F208DFFA804CFD
:1006120080D280FA80C680D4806980F280338010D4
:1006220080A680EA809A80A880DA80E280CA80333D
:1006320089828A83ECFAE493A3C8C582C8CCC583B5
:10064200CCF0A3C8C582C8CCC583CCDFE9DEE78085
:100652000D89828A83E493A3F608DFF9ECFAA9F004
:10066200EDFB2289828A83ECFAE0A3C8C582C8CC5A
:10067200C583CCF0A3C8C582C8CCC583CCDFEADE73
:10068200E880DB89828A83E493A3F208DFF980CCD5
:1006920088F0EF60010E4E60C388F0ED2402B404CE
:1006A2000050B9F582EB2402B4040050AF23234575
:0606B20082239006127382
:1006B800BB010689828A83E0225002E722BBFE0240
:0906C800E32289828A83E4932273
:1006D100BB010CE58229F582E5833AF583E02250DE
:1006E10006E92582F8E622BBFE06E92582F8E22228
:0D06F100E58229F582E5833AF583E4932242
:1006FE00BB010689828A83F0225002F722BBFE01DB
:02070E00F322D4
:10071000F8BB010DE58229F582E5833AF583E8F01F
:10072000225006E92582C8F622BBFE05E92582C8CB
:02073000F222B3
:10073200EF8DF0A4A8F0CF8CF0A428CE8DF0A42EDB
:02074200FE2295
:10074400BC000BBE0029EF8DF084FFADF022E4CC99
:10075400F875F008EF2FFFEE33FEEC33FCEE9DEC62
:10076400984005FCEE9DFE0FD5F0E9E4CEFD22EDA8
:10077400F8F5F0EE8420D21CFEADF075F008EF2FF2
:10078400FFED33FD4007985006D5F0F222C398FDE3
:050794000FD5F0EA2280
:10079900C5F0F8A3E028F0C5F0F8E58215827002EB
:0607A9001583E038F02288
:1007AF00A3F8E0C5F025F0F0E582158270021583FD
:0607BF00E0C838F0E8225A
:1007C500E88FF0A4CC8BF0A42CFCE98EF0A42CFCD3
:1007D5008AF0EDA42CFCEA8EF0A4CDA8F08BF0A451
:1007E5002DCC3825F0FDE98FF0A42CCD35F0FCEBB0
:1007F5008EF0A4FEA9F0EB8FF0A4CFC5F02ECD3975
:0F080500FEE43CFCEAA42DCE35F0FDE43CFC22E1
:10185D00C2D5E830E70FB2D5E4C39BFBE49AFAE4B6
:10186D0099F9E498F8EC30E717B2D51218931208ED
:10187D00E7E4C39BFBE49AFAE499F9E498F8800352
:10188D001208E730D50DE4C39FFFE49EFEE49DFDF5
:04189D00E49CFC22A9
:0E081400C3E49FFFE49EFEE49DFDE49CFC22F5
:10082200E8600FECC313FCED13FDEE13FEEF13FFB4
:03083200D8F122D8
:10083500E8600FEFC333FFEE33FEED33FDEC33FC21
:03084500D8F122C5
:0C084800ECF0A3EDF0A3EEF0A3EFF02223
:10085400A8828583F0D083D08212086B12086B12B1
:10086400086B12086BE473E493A3C583C5F0C583D6
:10087400C8C582C8F0A3C583C5F0C583C8C582C8EE
:010884002251
:10088500D083D082F8E4937012740193700DA3A302
:1008950093F8740193F5828883E473740293686016
:0608A500EFA3A3A380DF16
:0F1B6E00EFC394304007EF943A50028001C32236
:10000E00EFC394094005EF940E4004EFB42003D3E0
:04001E008001C32278
:1012CC00021B37E493A3F8E493A34003F68001F2E6
:1012DC0008DFF48029E493A3F85407240CC8C33323
:1012EC00C4540F4420C8834004F456800146F6DFF2
:1012FC00E4800B0102040810204080901814E47E56
:10130C00019360BCA3FF543F30E509541FFEE493E6
:10131C00A360010ECF54C025E060A840B8E493A3AD
:10132C00FAE493A3F8E493A3C8C582C8CAC583CAD8
:10133C00F0A3C8C582C8CAC583CADFE9DEE780BE90
:01185C00008B
:1008AB0075F008758200EF2FFFEE33FECD33CDCC04
:1008BB0033CCC58233C5829BED9AEC99E582984087
:1008CB000CF582EE9BFEED9AFDEC99FC0FD5F0D664
:1008DB00E4CEFBE4CDFAE4CCF9A88222B800C1B98E
:1008EB000059BA002DEC8BF084CFCECDFCE5F0CBCC
:1008FB00F97818EF2FFFEE33FEED33FDEC33FCEB05
:10090B0033FB10D703994004EB99FB0FD8E5E4F9BF
:10091B00FA227818EF2FFFEE33FEED33FDEC33FCAC
:10092B00C933C910D7059BE99A4007EC9BFCE99AA0
:10093B00F90FD8E0E4C9FAE4CCFB2275F010EF2FE5
:10094B00FFEE33FEED33FDCC33CCC833C810D707E5
:10095B009BEC9AE899400AED9BFDEC9AFCE899F820
:0E096B000FD5F0DAE4CDFBE4CCFAE4C8F922B3
:00000001FF
